{"abi":[{"type":"constructor","inputs":[{"name":"_name","type":"string","internalType":"string"}],"stateMutability":"nonpayable"},{"type":"function","name":"count","inputs":[],"outputs":[{"name":"","type":"uint256","internalType":"uint256"}],"stateMutability":"view"},{"type":"function","name":"getCountAsString","inputs":[],"outputs":[{"name":"","type":"string","internalType":"string"}],"stateMutability":"view"},{"type":"function","name":"increment","inputs":[],"outputs":[],"stateMutability":"nonpayable"},{"type":"function","name":"name","inputs":[],"outputs":[{"name":"","type":"string","internalType":"string"}],"stateMutability":"view"},{"type":"function","name":"sendETH","inputs":[{"name":"to","type":"address","internalType":"address payable"},{"name":"amount","type":"uint256","internalType":"uint256"}],"outputs":[],"stateMutability":"nonpayable"},{"type":"error","name":"Reentrancy","inputs":[]}],"bytecode":{"object":"0x608060405234801561000f575f5ffd5b5060405161058638038061058683398101604081905261002e91610054565b5f6100398282610188565b5050610242565b634e487b7160e01b5f52604160045260245ffd5b5f60208284031215610064575f5ffd5b81516001600160401b03811115610079575f5ffd5b8201601f81018413610089575f5ffd5b80516001600160401b038111156100a2576100a2610040565b604051601f8201601f19908116603f011681016001600160401b03811182821017156100d0576100d0610040565b6040528181528282016020018610156100e7575f5ffd5b8160208401602083015e5f91810160200191909152949350505050565b600181811c9082168061011857607f821691505b60208210810361013657634e487b7160e01b5f52602260045260245ffd5b50919050565b601f82111561018357805f5260205f20601f840160051c810160208510156101615750805b601f840160051c820191505b81811015610180575f815560010161016d565b50505b505050565b81516001600160401b038111156101a1576101a1610040565b6101b5816101af8454610104565b8461013c565b6020601f8211600181146101e7575f83156101d05750848201515b5f19600385901b1c1916600184901b178455610180565b5f84815260208120601f198516915b8281101561021657878501518255602094850194600190920191016101f6565b508482101561023357868401515f19600387901b60f8161c191681555b50505050600190811b01905550565b6103378061024f5f395ff3fe608060405234801561000f575f5ffd5b5060043610610055575f3560e01c806306661abd1461005957806306fdde031461007557806364a197f31461008a5780636f8c266e1461009f578063d09de08a146100a7575b5f5ffd5b61006260015481565b6040519081526020015b60405180910390f35b61007d6100af565b60405161006c919061023b565b61009d610098366004610270565b61013a565b005b61007d61017e565b61009d610190565b5f80546100bb906102a5565b80601f01602080910402602001604051908101604052809291908181526020018280546100e7906102a5565b80156101325780601f1061010957610100808354040283529160200191610132565b820191905f5260205f20905b81548152906001019060200180831161011557829003601f168201915b505050505081565b3068929eee149b4bd2126854036101585763ab143c065f526004601cfd5b3068929eee149b4bd212685561016e82826101dc565b3868929eee149b4bd21268555050565b606061018b6001546101f9565b905090565b3068929eee149b4bd2126854036101ae5763ab143c065f526004601cfd5b3068929eee149b4bd212685560018054905f6101c9836102dd565b91905055503868929eee149b4bd2126855565b5f385f3884865af16101f55763b12d13eb5f526004601cfd5b5050565b60606080604051019050602081016040525f8152805f19835b928101926030600a8206018453600a900480610212575050819003601f19909101908152919050565b602081525f82518060208401528060208501604085015e5f604082850101526040601f19601f83011684010191505092915050565b5f5f60408385031215610281575f5ffd5b82356001600160a01b0381168114610297575f5ffd5b946020939093013593505050565b600181811c908216806102b957607f821691505b6020821081036102d757634e487b7160e01b5f52602260045260245ffd5b50919050565b5f600182016102fa57634e487b7160e01b5f52601160045260245ffd5b506001019056fea264697066735822122003a881c26d09c993fef6efedc6d0ce29293079cc8f6e7f727c545d7adc162bf864736f6c634300081c0033","linkReferences":{}},"methodIdentifiers":{"count()":"06661abd","getCountAsString()":"6f8c266e","increment()":"d09de08a","name()":"06fdde03","sendETH(address,uint256)":"64a197f3"},"id":27}